{
  "contractName": "BetGame",
  "abi": [
    {
      "inputs": [],
      "stateMutability": "payable",
      "type": "constructor",
      "payable": true
    },
    {
      "anonymous": false,
      "inputs": [
        {
          "indexed": false,
          "internalType": "bool",
          "name": "win",
          "type": "bool"
        }
      ],
      "name": "MakeBetEvent",
      "type": "event"
    },
    {
      "anonymous": false,
      "inputs": [],
      "name": "WithdrawAllEvent",
      "type": "event"
    },
    {
      "stateMutability": "payable",
      "type": "fallback",
      "payable": true
    },
    {
      "inputs": [],
      "name": "destroy",
      "outputs": [],
      "stateMutability": "nonpayable",
      "type": "function"
    },
    {
      "inputs": [
        {
          "internalType": "enum BetGame.COIN_STATE",
          "name": "coinState",
          "type": "uint8"
        }
      ],
      "name": "makeBet",
      "outputs": [],
      "stateMutability": "payable",
      "type": "function",
      "payable": true
    },
    {
      "inputs": [],
      "name": "getGameBalance",
      "outputs": [
        {
          "internalType": "uint256",
          "name": "",
          "type": "uint256"
        }
      ],
      "stateMutability": "view",
      "type": "function",
      "constant": true
    },
    {
      "inputs": [],
      "name": "withdrawAll",
      "outputs": [],
      "stateMutability": "nonpayable",
      "type": "function"
    }
  ],
  "bytecode": "0x60a060405260008060006101000a81548160ff0219169083151502179055503373ffffffffffffffffffffffffffffffffffffffff1660808173ffffffffffffffffffffffffffffffffffffffff1660601b81525050670de0b6b3a76400008034148160405160200180807f466978656420616d6f756e742073686f756c64206265207061737365643a2000815250601f01828152602001807f207765690000000000000000000000000000000000000000000000000000000081525060040191505060405160208183030381529060405290610177576040517f08c379a00000000000000000000000000000000000000000000000000000000081526004018080602001828103825283818151815260200191508051906020019080838360005b8381101561013c578082015181840152602081019050610121565b50505050905090810190601f1680156101695780820380516001836020036101000a031916815260200191505b509250505060405180910390fd5b505060805160601c61064961019b600039806103cf528061048c52506106496000f3fe6080604052600436106100435760003560e01c8063043336bf1461004657806383197ef014610077578063853828b61461008e578063c574d156146100a557610044565b5b005b6100756004803603602081101561005c57600080fd5b81019080803560ff1690602001909291905050506100d0565b005b34801561008357600080fd5b5061008c6103cd565b005b34801561009a57600080fd5b506100a361048a565b005b3480156100b157600080fd5b506100ba6105a3565b6040518082815260200191505060405180910390f35b67016345785d8a00008034148160405160200180807f466978656420616d6f756e742073686f756c64206265207061737365643a2000815250601f01828152602001807f2077656900000000000000000000000000000000000000000000000000000000815250600401915050604051602081830303815290604052906101f2576040517f08c379a00000000000000000000000000000000000000000000000000000000081526004018080602001828103825283818151815260200191508051906020019080838360005b838110156101b757808201518184015260208101905061019c565b50505050905090810190601f1680156101e45780820380516001836020036101000a031916815260200191505b509250505060405180910390fd5b5060008054906101000a900460ff1615610257576040517f08c379a00000000000000000000000000000000000000000000000000000000081526004018080602001828103825260248152602001806105ce6024913960400191505060405180910390fd5b60016000806101000a81548160ff02191690831515021790555067016345785d8a0000804710156102f0576040517f08c379a000000000000000000000000000000000000000000000000000000000815260040180806020018281038252601a8152602001807f4e6f7420656e6f7567682062616c616e636520746f20706c617900000000000081525060200191505060405180910390fd5b60006102fa6105ab565b9050600084600181111561030a57fe5b82600181111561031657fe5b1415610373573373ffffffffffffffffffffffffffffffffffffffff166108fc600267016345785d8a0000029081150290604051600060405180830381858888f1935050505015801561036d573d6000803e3d6000fd5b50600190505b7fdcbb43d7a99fa0abf3c369ade61f031e748e7398fc3774d6ef6819fd5f26e2e58160405180821515815260200191505060405180910390a150505060008060006101000a81548160ff0219169083151502179055505050565b7f000000000000000000000000000000000000000000000000000000000000000073ffffffffffffffffffffffffffffffffffffffff163373ffffffffffffffffffffffffffffffffffffffff1614610471576040517f08c379a00000000000000000000000000000000000000000000000000000000081526004018080602001828103825260228152602001806105f26022913960400191505060405180910390fd5b3373ffffffffffffffffffffffffffffffffffffffff16ff5b7f000000000000000000000000000000000000000000000000000000000000000073ffffffffffffffffffffffffffffffffffffffff163373ffffffffffffffffffffffffffffffffffffffff161461052e576040517f08c379a00000000000000000000000000000000000000000000000000000000081526004018080602001828103825260228152602001806105f26022913960400191505060405180910390fd5b3373ffffffffffffffffffffffffffffffffffffffff166108fc479081150290604051600060405180830381858888f19350505050158015610574573d6000803e3d6000fd5b507f6aa1042049a04c07e8d72903f147a9cab5f3273a43479d2d211147df8ec5384560405160405180910390a1565b600047905090565b600080600242816105b857fe5b06146105c55760016105c8565b60005b90509056fe48617320616c726561647920656e74657265642074686973206d6574686f64206f6e63654f776e6572206f6e6c792063616e20657865637574652074686973206d6574686f64a26469706673582212201dc67dfbc57c4c57307bd2de1defc65ccff9a08f4d7083fc0e200acbe97a771764736f6c63430007050033",
  "immutableReferences": {
    "191": [
      {
        "length": 32,
        "start": 975
      },
      {
        "length": 32,
        "start": 1164
      }
    ]
  },
  "source": "pragma solidity 0.7.5;\n\nimport \"./Destroyable.sol\";\nimport \"./Payable.sol\";\nimport \"./ReentranceGuard.sol\";\n\ncontract BetGame is Destroyable, Payable, ReentranceGuard {\n\n  uint constant internal BET_PRICE = 100000000 gwei; // 1/10 of ether\n  uint constant internal INITIAL_BALANCE = 1 ether;\n  uint constant internal PRIZE = BET_PRICE * 2;\n\n  enum COIN_STATE {HEAD, TAIL}\n  event MakeBetEvent(bool win);\n  event WithdrawAllEvent();\n\n  constructor() public payable costs(INITIAL_BALANCE) {\n  }\n\n  function makeBet(COIN_STATE coinState) public payable costs(BET_PRICE) nonReentrant() hasEnoughBalance(BET_PRICE) {\n    COIN_STATE randomState = randomState();\n    bool win = false;\n    if (randomState == coinState) {\n      msg.sender.transfer(PRIZE);\n      win = true;\n    }\n    emit MakeBetEvent(win);\n  }\n\n  function getGameBalance() public view returns (uint) {\n    return address(this).balance;\n  }\n\n  function withdrawAll() public isOwner() {\n    msg.sender.transfer(address(this).balance);\n    emit WithdrawAllEvent();\n  }\n\n  function randomState() private view returns (COIN_STATE) {\n    return block.timestamp % 2 == 0 ? COIN_STATE.HEAD : COIN_STATE.TAIL;\n  }\n\n  // in case someone wants to recharge game balance\n  fallback() external payable {\n  }\n\n}\n",
  "sourcePath": "/Users/ricoto86/projects/course/bet-game-project/contracts/BetGame.sol",
  "compiler": {
    "name": "solc",
    "version": "0.7.5+commit.eb77ed08.Emscripten.clang"
  },
  "schemaVersion": "3.3.2",
  "updatedAt": "2020-12-28T21:38:39.536Z",
  "networkType": "ethereum",
  "devdoc": {
    "kind": "dev",
    "methods": {},
    "version": 1
  },
  "userdoc": {
    "kind": "user",
    "methods": {},
    "version": 1
  }
}